{
  "contractName": "Lottery",
  "abi": [
    {
      "constant": true,
      "inputs": [],
      "name": "manager",
      "outputs": [
        {
          "name": "",
          "type": "address"
        }
      ],
      "payable": false,
      "stateMutability": "view",
      "type": "function"
    },
    {
      "inputs": [],
      "payable": false,
      "stateMutability": "nonpayable",
      "type": "constructor"
    },
    {
      "constant": false,
      "inputs": [],
      "name": "enter",
      "outputs": [],
      "payable": true,
      "stateMutability": "payable",
      "type": "function"
    },
    {
      "constant": false,
      "inputs": [],
      "name": "pickWinner",
      "outputs": [],
      "payable": false,
      "stateMutability": "nonpayable",
      "type": "function"
    },
    {
      "constant": true,
      "inputs": [],
      "name": "getPlayers",
      "outputs": [
        {
          "name": "",
          "type": "address[]"
        }
      ],
      "payable": false,
      "stateMutability": "view",
      "type": "function"
    },
    {
      "constant": true,
      "inputs": [],
      "name": "getWinnerPlayer",
      "outputs": [
        {
          "name": "",
          "type": "address"
        }
      ],
      "payable": false,
      "stateMutability": "view",
      "type": "function"
    }
  ],
  "bytecode": "0x6060604052662386f26fc10000600355341561001a57600080fd5b336000806101000a81548173ffffffffffffffffffffffffffffffffffffffff021916908373ffffffffffffffffffffffffffffffffffffffff160217905550610696806100696000396000f30060606040526004361061006d576000357c0100000000000000000000000000000000000000000000000000000000900463ffffffff168063481c6a75146100725780635d495aea146100c75780638b5b9ccc146100dc5780639719f4f114610146578063e97dcb621461019b575b600080fd5b341561007d57600080fd5b6100856101a5565b604051808273ffffffffffffffffffffffffffffffffffffffff1673ffffffffffffffffffffffffffffffffffffffff16815260200191505060405180910390f35b34156100d257600080fd5b6100da6101ca565b005b34156100e757600080fd5b6100ef610373565b6040518080602001828103825283818151815260200191508051906020019060200280838360005b83811015610132578082015181840152602081019050610117565b505050509050019250505060405180910390f35b341561015157600080fd5b610159610407565b604051808273ffffffffffffffffffffffffffffffffffffffff1673ffffffffffffffffffffffffffffffffffffffff16815260200191505060405180910390f35b6101a3610431565b005b6000809054906101000a900473ffffffffffffffffffffffffffffffffffffffff1681565b6000806000809054906101000a900473ffffffffffffffffffffffffffffffffffffffff1673ffffffffffffffffffffffffffffffffffffffff163373ffffffffffffffffffffffffffffffffffffffff1614151561022857600080fd5b6001805490506102366104a6565b81151561023f57fe5b06915030905060018281548110151561025457fe5b906000526020600020900160009054906101000a900473ffffffffffffffffffffffffffffffffffffffff16600260006101000a81548173ffffffffffffffffffffffffffffffffffffffff021916908373ffffffffffffffffffffffffffffffffffffffff160217905550600260009054906101000a900473ffffffffffffffffffffffffffffffffffffffff1673ffffffffffffffffffffffffffffffffffffffff166108fc8273ffffffffffffffffffffffffffffffffffffffff16319081150290604051600060405180830381858888f19350505050151561033957600080fd5b60006040518059106103485750595b90808252806020026020018201604052506001908051906020019061036e929190610538565b505050565b61037b6105c2565b60018054806020026020016040519081016040528092919081815260200182805480156103fd57602002820191906000526020600020905b8160009054906101000a900473ffffffffffffffffffffffffffffffffffffffff1673ffffffffffffffffffffffffffffffffffffffff16815260200190600101908083116103b3575b5050505050905090565b6000600260009054906101000a900473ffffffffffffffffffffffffffffffffffffffff16905090565b6003543411151561044157600080fd5b6001805480600101828161045591906105d6565b9160005260206000209001600033909190916101000a81548173ffffffffffffffffffffffffffffffffffffffff021916908373ffffffffffffffffffffffffffffffffffffffff16021790555050565b60004442600160405180848152602001838152602001828054801561052057602002820191906000526020600020905b8160009054906101000a900473ffffffffffffffffffffffffffffffffffffffff1673ffffffffffffffffffffffffffffffffffffffff16815260200190600101908083116104d6575b50509350505050604051809103902060019004905090565b8280548282559060005260206000209081019282156105b1579160200282015b828111156105b05782518260006101000a81548173ffffffffffffffffffffffffffffffffffffffff021916908373ffffffffffffffffffffffffffffffffffffffff16021790555091602001919060010190610558565b5b5090506105be9190610602565b5090565b602060405190810160405280600081525090565b8154818355818115116105fd578183600052602060002091820191016105fc9190610645565b5b505050565b61064291905b8082111561063e57600081816101000a81549073ffffffffffffffffffffffffffffffffffffffff021916905550600101610608565b5090565b90565b61066791905b8082111561066357600081600090555060010161064b565b5090565b905600a165627a7a723058201433a4579c4ad2b0ffff12d8f46ea5e96de174c9bbb8e502f35647cf1f3fc86a0029",
  "source": "pragma solidity ^0.4.21;\r\n\r\ncontract Lottery {\r\n    //setting manager\r\n    address public manager;\r\n    //players array\r\n    address[] players;\r\n    address winnerPlayers;\r\n    uint battingEther = .01 ether;\r\n    \r\n    function Lottery() public {\r\n        manager = msg.sender;\r\n    }\r\n    \r\n    //enter\r\n    function enter() public payable{\r\n        //ether deposit\r\n        require(msg.value > battingEther);\r\n        players.push(msg.sender);\r\n    }\r\n    \r\n    //random\r\n    function random() private view returns (uint){\r\n        return uint(keccak256(block.difficulty, now, players));\r\n    }\r\n    \r\n    //pickWinner\r\n    //check execute from only manager\r\n    function pickWinner() public restricted {\r\n        //pick the random pickWinner\r\n        uint index = random() % players.length;\r\n        //send the all money\r\n        address contractAddress = this;\r\n        winnerPlayers = players[index];\r\n        winnerPlayers.transfer( contractAddress.balance );\r\n        // init players\r\n        players = new address[](0);\r\n    }\r\n    \r\n    //get the players\r\n    function getPlayers() public view returns (address[]) {\r\n        //check manager\r\n        return players;\r\n    }\r\n    \r\n    function getWinnerPlayer() public view returns (address) {\r\n        return winnerPlayers;\r\n    }\r\n\r\n    //restricted\r\n    modifier restricted() {\r\n        require(msg.sender == manager);\r\n        _;\r\n    }\r\n}",
  "sourcePath": "D:\\workspace_bchain\\truffle_lottery\\contracts\\Lottery.sol",
  "compiler": {
    "name": "solc",
    "version": "0.4.21+commit.dfe3193c.Emscripten.clang"
  },
  "schemaVersion": "2.0.0",
  "updatedAt": "2018-04-19T06:53:56.092Z"
}